{
  "contractName": "Ticket",
  "abi": [
    {
      "constant": true,
      "inputs": [],
      "name": "name",
      "outputs": [
        {
          "name": "",
          "type": "string"
        }
      ],
      "payable": false,
      "stateMutability": "view",
      "type": "function"
    },
    {
      "constant": true,
      "inputs": [
        {
          "name": "_tokenId",
          "type": "uint256"
        }
      ],
      "name": "getApproved",
      "outputs": [
        {
          "name": "",
          "type": "address"
        }
      ],
      "payable": false,
      "stateMutability": "view",
      "type": "function"
    },
    {
      "constant": false,
      "inputs": [
        {
          "name": "_to",
          "type": "address"
        },
        {
          "name": "_tokenId",
          "type": "uint256"
        }
      ],
      "name": "approve",
      "outputs": [],
      "payable": false,
      "stateMutability": "nonpayable",
      "type": "function"
    },
    {
      "constant": true,
      "inputs": [],
      "name": "totalSupply",
      "outputs": [
        {
          "name": "",
          "type": "uint256"
        }
      ],
      "payable": false,
      "stateMutability": "view",
      "type": "function"
    },
    {
      "constant": false,
      "inputs": [
        {
          "name": "_from",
          "type": "address"
        },
        {
          "name": "_to",
          "type": "address"
        },
        {
          "name": "_tokenId",
          "type": "uint256"
        }
      ],
      "name": "transferFrom",
      "outputs": [],
      "payable": false,
      "stateMutability": "nonpayable",
      "type": "function"
    },
    {
      "constant": true,
      "inputs": [
        {
          "name": "_owner",
          "type": "address"
        },
        {
          "name": "_index",
          "type": "uint256"
        }
      ],
      "name": "tokenOfOwnerByIndex",
      "outputs": [
        {
          "name": "",
          "type": "uint256"
        }
      ],
      "payable": false,
      "stateMutability": "view",
      "type": "function"
    },
    {
      "constant": false,
      "inputs": [
        {
          "name": "_from",
          "type": "address"
        },
        {
          "name": "_to",
          "type": "address"
        },
        {
          "name": "_tokenId",
          "type": "uint256"
        }
      ],
      "name": "safeTransferFrom",
      "outputs": [],
      "payable": false,
      "stateMutability": "nonpayable",
      "type": "function"
    },
    {
      "constant": true,
      "inputs": [
        {
          "name": "_tokenId",
          "type": "uint256"
        }
      ],
      "name": "exists",
      "outputs": [
        {
          "name": "",
          "type": "bool"
        }
      ],
      "payable": false,
      "stateMutability": "view",
      "type": "function"
    },
    {
      "constant": true,
      "inputs": [
        {
          "name": "_index",
          "type": "uint256"
        }
      ],
      "name": "tokenByIndex",
      "outputs": [
        {
          "name": "",
          "type": "uint256"
        }
      ],
      "payable": false,
      "stateMutability": "view",
      "type": "function"
    },
    {
      "constant": true,
      "inputs": [
        {
          "name": "_tokenId",
          "type": "uint256"
        }
      ],
      "name": "ownerOf",
      "outputs": [
        {
          "name": "",
          "type": "address"
        }
      ],
      "payable": false,
      "stateMutability": "view",
      "type": "function"
    },
    {
      "constant": true,
      "inputs": [
        {
          "name": "_owner",
          "type": "address"
        }
      ],
      "name": "balanceOf",
      "outputs": [
        {
          "name": "",
          "type": "uint256"
        }
      ],
      "payable": false,
      "stateMutability": "view",
      "type": "function"
    },
    {
      "constant": true,
      "inputs": [],
      "name": "symbol",
      "outputs": [
        {
          "name": "",
          "type": "string"
        }
      ],
      "payable": false,
      "stateMutability": "view",
      "type": "function"
    },
    {
      "constant": false,
      "inputs": [
        {
          "name": "_to",
          "type": "address"
        },
        {
          "name": "_approved",
          "type": "bool"
        }
      ],
      "name": "setApprovalForAll",
      "outputs": [],
      "payable": false,
      "stateMutability": "nonpayable",
      "type": "function"
    },
    {
      "constant": false,
      "inputs": [
        {
          "name": "_from",
          "type": "address"
        },
        {
          "name": "_to",
          "type": "address"
        },
        {
          "name": "_tokenId",
          "type": "uint256"
        },
        {
          "name": "_data",
          "type": "bytes"
        }
      ],
      "name": "safeTransferFrom",
      "outputs": [],
      "payable": false,
      "stateMutability": "nonpayable",
      "type": "function"
    },
    {
      "constant": true,
      "inputs": [
        {
          "name": "_tokenId",
          "type": "uint256"
        }
      ],
      "name": "tokenURI",
      "outputs": [
        {
          "name": "",
          "type": "string"
        }
      ],
      "payable": false,
      "stateMutability": "view",
      "type": "function"
    },
    {
      "constant": true,
      "inputs": [
        {
          "name": "_owner",
          "type": "address"
        },
        {
          "name": "_operator",
          "type": "address"
        }
      ],
      "name": "isApprovedForAll",
      "outputs": [
        {
          "name": "",
          "type": "bool"
        }
      ],
      "payable": false,
      "stateMutability": "view",
      "type": "function"
    },
    {
      "inputs": [
        {
          "name": "_name",
          "type": "string"
        },
        {
          "name": "_symbol",
          "type": "string"
        }
      ],
      "payable": false,
      "stateMutability": "nonpayable",
      "type": "constructor"
    },
    {
      "anonymous": false,
      "inputs": [
        {
          "indexed": true,
          "name": "_from",
          "type": "address"
        },
        {
          "indexed": true,
          "name": "_to",
          "type": "address"
        },
        {
          "indexed": false,
          "name": "_tokenId",
          "type": "uint256"
        }
      ],
      "name": "Transfer",
      "type": "event"
    },
    {
      "anonymous": false,
      "inputs": [
        {
          "indexed": true,
          "name": "_owner",
          "type": "address"
        },
        {
          "indexed": true,
          "name": "_approved",
          "type": "address"
        },
        {
          "indexed": false,
          "name": "_tokenId",
          "type": "uint256"
        }
      ],
      "name": "Approval",
      "type": "event"
    },
    {
      "anonymous": false,
      "inputs": [
        {
          "indexed": true,
          "name": "_owner",
          "type": "address"
        },
        {
          "indexed": true,
          "name": "_operator",
          "type": "address"
        },
        {
          "indexed": false,
          "name": "_approved",
          "type": "bool"
        }
      ],
      "name": "ApprovalForAll",
      "type": "event"
    },
    {
      "constant": false,
      "inputs": [
        {
          "name": "data",
          "type": "string"
        }
      ],
      "name": "createNewToken",
      "outputs": [],
      "payable": true,
      "stateMutability": "payable",
      "type": "function"
    }
  ],
  "bytecode": "0x60806040523480156200001157600080fd5b5060405162001268380380620012688339810160405280516020808301519183018051909392909201918391839162000051916004919085019062000098565b5080516200006790600590602084019062000098565b5050662386f26fc10000600b555050600c8054600160a060020a03191633600160a060020a0316179055506200013d565b828054600181600116156101000203166002900490600052602060002090601f016020900481019282601f10620000db57805160ff19168380011785556200010b565b828001600101855582156200010b579182015b828111156200010b578251825591602001919060010190620000ee565b50620001199291506200011d565b5090565b6200013a91905b8082111562000119576000815560010162000124565b90565b61111b806200014d6000396000f3006080604052600436106100f05763ffffffff7c010000000000000000000000000000000000000000000000000000000060003504166306fdde0381146100f5578063081812fc1461017f578063095ea7b3146101b357806318160ddd146101d957806323b872dd146102005780632f745c591461022a57806342842e0e1461024e5780634f558e79146102785780634f6ccce7146102a45780636352211e146102bc57806370a08231146102d457806395d89b41146102f5578063a22cb4651461030a578063b88d4fde14610330578063b90f1aaa1461039f578063c87b56dd146103eb578063e985e9c514610403575b600080fd5b34801561010157600080fd5b5061010a61042a565b6040805160208082528351818301528351919283929083019185019080838360005b8381101561014457818101518382015260200161012c565b50505050905090810190601f1680156101715780820380516001836020036101000a031916815260200191505b509250505060405180910390f35b34801561018b57600080fd5b506101976004356104c1565b60408051600160a060020a039092168252519081900360200190f35b3480156101bf57600080fd5b506101d7600160a060020a03600435166024356104dc565b005b3480156101e557600080fd5b506101ee6105d7565b60408051918252519081900360200190f35b34801561020c57600080fd5b506101d7600160a060020a03600435811690602435166044356105dd565b34801561023657600080fd5b506101ee600160a060020a036004351660243561068c565b34801561025a57600080fd5b506101d7600160a060020a03600435811690602435166044356106d9565b34801561028457600080fd5b50610290600435610711565b604080519115158252519081900360200190f35b3480156102b057600080fd5b506101ee60043561072e565b3480156102c857600080fd5b50610197600435610763565b3480156102e057600080fd5b506101ee600160a060020a036004351661078d565b34801561030157600080fd5b5061010a6107c0565b34801561031657600080fd5b506101d7600160a060020a03600435166024351515610821565b34801561033c57600080fd5b50604080516020601f6064356004818101359283018490048402850184019095528184526101d794600160a060020a0381358116956024803590921695604435953695608494019181908401838280828437509497506108b09650505050505050565b6040805160206004803580820135601f81018490048402850184019095528484526101d79436949293602493928401919081908401838280828437509497506108ef9650505050505050565b3480156103f757600080fd5b5061010a6004356109b9565b34801561040f57600080fd5b50610290600160a060020a0360043581169060243516610a6e565b60048054604080516020601f60026000196101006001881615020190951694909404938401819004810282018101909252828152606093909290918301828280156104b65780601f1061048b576101008083540402835291602001916104b6565b820191906000526020600020905b81548152906001019060200180831161049957829003601f168201915b505050505090505b90565b600090815260016020526040902054600160a060020a031690565b60006104e782610763565b9050600160a060020a03838116908216141561050257600080fd5b80600160a060020a031633600160a060020a0316148061052757506105278133610a6e565b151561053257600080fd5b600061053d836104c1565b600160a060020a031614158061055b5750600160a060020a03831615155b156105d257600082815260016020908152604091829020805473ffffffffffffffffffffffffffffffffffffffff1916600160a060020a03878116918217909255835186815293519093918516927f8c5be1e5ebec7d5bd14f71427d1e84f3dd0314c0f7b2291e5b200ac8c7c3b925928290030190a35b505050565b60085490565b806105e83382610a9c565b15156105f357600080fd5b600160a060020a038416151561060857600080fd5b600160a060020a038316151561061d57600080fd5b6106278483610afb565b6106318483610ba9565b61063b8383610ce2565b82600160a060020a031684600160a060020a03167fddf252ad1be2c89b69c2b068fc378daa952ba7f163c4a11628f55a4df523b3ef846040518082815260200191505060405180910390a350505050565b60006106978361078d565b82106106a257600080fd5b600160a060020a03831660009081526006602052604090208054839081106106c657fe5b9060005260206000200154905092915050565b806106e43382610a9c565b15156106ef57600080fd5b61070b84848460206040519081016040528060008152506108b0565b50505050565b600090815260208190526040902054600160a060020a0316151590565b60006107386105d7565b821061074357600080fd5b600880548390811061075157fe5b90600052602060002001549050919050565b600081815260208190526040812054600160a060020a031680151561078757600080fd5b92915050565b6000600160a060020a03821615156107a457600080fd5b50600160a060020a031660009081526002602052604090205490565b60058054604080516020601f60026000196101006001881615020190951694909404938401819004810282018101909252828152606093909290918301828280156104b65780601f1061048b576101008083540402835291602001916104b6565b33600160a060020a031682600160a060020a03161415151561084257600080fd5b600160a060020a03338116600081815260036020908152604080832094871680845294825291829020805486151560ff199091168117909155825190815291517f17307eab39ab6107e8899845ad3d59bd9653f200f220920489ca2b5937696c319281900390910190a35050565b816108bb3382610a9c565b15156108c657600080fd5b6108d18585856105dd565b6108dd85858585610d2b565b15156108e857600080fd5b5050505050565b600b54600090341461090057600080fd5b816040518082805190602001908083835b602083106109305780518252601f199092019160209182019101610911565b6001836020036101000a038019825116818451168082178552505050505050905001915050604051809103902060019004905061096c81610711565b1561097657600080fd5b6109803382610eb4565b600c54604051600160a060020a03909116903480156108fc02916000818181858888f193505050501580156105d2573d6000803e3d6000fd5b60606109c482610711565b15156109cf57600080fd5b6000828152600a602090815260409182902080548351601f600260001961010060018616150201909316929092049182018490048402810184019094528084529091830182828015610a625780601f10610a3757610100808354040283529160200191610a62565b820191906000526020600020905b815481529060010190602001808311610a4557829003601f168201915b50505050509050919050565b600160a060020a03918216600090815260036020908152604080832093909416825291909152205460ff1690565b600080610aa883610763565b905080600160a060020a031684600160a060020a03161480610ae3575083600160a060020a0316610ad8846104c1565b600160a060020a0316145b80610af35750610af38185610a6e565b949350505050565b81600160a060020a0316610b0e82610763565b600160a060020a031614610b2157600080fd5b600081815260016020526040902054600160a060020a031615610ba5576000818152600160209081526040808320805473ffffffffffffffffffffffffffffffffffffffff1916905580518481529051600160a060020a038616927f8c5be1e5ebec7d5bd14f71427d1e84f3dd0314c0f7b2291e5b200ac8c7c3b925928290030190a35b5050565b6000806000610bb88585610f03565b600084815260076020908152604080832054600160a060020a0389168452600690925290912054909350610bf390600163ffffffff610f9816565b600160a060020a038616600090815260066020526040902080549193509083908110610c1b57fe5b90600052602060002001549050806006600087600160a060020a0316600160a060020a0316815260200190815260200160002084815481101515610c5b57fe5b6000918252602080832090910192909255600160a060020a0387168152600690915260408120805484908110610c8d57fe5b6000918252602080832090910192909255600160a060020a0387168152600690915260409020805490610cc49060001983016110b2565b50600093845260076020526040808520859055908452909220555050565b6000610cee8383610faa565b50600160a060020a039091166000908152600660209081526040808320805460018101825590845282842081018590559383526007909152902055565b600080610d4085600160a060020a0316611039565b1515610d4f5760019150610eab565b84600160a060020a031663f0b9e5ba8786866040518463ffffffff167c01000000000000000000000000000000000000000000000000000000000281526004018084600160a060020a0316600160a060020a0316815260200183815260200180602001828103825283818151815260200191508051906020019080838360005b83811015610de7578181015183820152602001610dcf565b50505050905090810190601f168015610e145780820380516001836020036101000a031916815260200191505b50945050505050602060405180830381600087803b158015610e3557600080fd5b505af1158015610e49573d6000803e3d6000fd5b505050506040513d6020811015610e5f57600080fd5b50517fffffffff0000000000000000000000000000000000000000000000000000000081167ff0b9e5ba0000000000000000000000000000000000000000000000000000000014925090505b50949350505050565b610ebe8282611041565b600880546000838152600960205260408120829055600182018355919091527ff3f7a9fe364faab93b216da50a3214154f22a0a2b415b23a84c8169e8b636ee3015550565b81600160a060020a0316610f1682610763565b600160a060020a031614610f2957600080fd5b600160a060020a038216600090815260026020526040902054610f5390600163ffffffff610f9816565b600160a060020a039092166000908152600260209081526040808320949094559181529081905220805473ffffffffffffffffffffffffffffffffffffffff19169055565b600082821115610fa457fe5b50900390565b600081815260208190526040902054600160a060020a031615610fcc57600080fd5b600081815260208181526040808320805473ffffffffffffffffffffffffffffffffffffffff1916600160a060020a038716908117909155835260029091529020546110199060016110a5565b600160a060020a0390921660009081526002602052604090209190915550565b6000903b1190565b600160a060020a038216151561105657600080fd5b6110608282610ce2565b604080518281529051600160a060020a038416916000917fddf252ad1be2c89b69c2b068fc378daa952ba7f163c4a11628f55a4df523b3ef9181900360200190a35050565b8181018281101561078757fe5b8154818355818111156105d2576000838152602090206105d29181019083016104be91905b808211156110eb57600081556001016110d7565b50905600a165627a7a72305820d876b19d53d58ac45d88e84fdcd005df332e0a26059f9236cbce3bc0631109090029",
  "source": "pragma solidity ^0.4.23;\r\nimport \"./ERC721Extended.sol\";\r\n\r\ncontract Ticket is ERC721Token {\r\n  uint price;\r\n  address owner;\r\n  \r\n  constructor (string _name, string _symbol) public ERC721Token(_name, _symbol) {\r\n      price = 10 finney;\r\n\t  owner = msg.sender;\r\n  }\r\n\r\n  function createNewToken(string data) public payable {\r\n      require(msg.value == price);\r\n      uint tokenId = uint(sha3(data));\r\n      require(!exists(tokenId));\r\n      _mint(msg.sender, tokenId);\r\n      address(owner).transfer(msg.value);\r\n  }\r\n}",
  "sourcePath": "C:\\Blockchain\\bf_week6\\tickets\\contracts\\Ticket.sol",
  "compiler": {
    "name": "solc",
    "version": "0.4.23+commit.124ca40d.Emscripten.clang"
  },
  "schemaVersion": "2.0.0",
  "updatedAt": "2018-06-01T20:46:39.808Z"
}